:1000000009C016C015C014C013C012C011C010C062
:100010000FC00EC011241FBECFE9CDBF10E0A0E677
:10002000B0E001C01D92A836B107E1F724D066C048
:10003000E7CF80916700811103C088B3886388BBD4
:100040009091670080916300981301C0C3989091CC
:10005000670080916200981301C0C4989091670076
:1000600080916000981301C0C598809167008F5FF0
:1000700080936700089588E387BB18BA8BE080936C
:10008000630080E4809362008FEF809360001092A1
:10009000670010926100C1E088B38823C9F08091A5
:1000A0006100811115C0C093610088B32C2F8111AC
:1000B00001C020E02093660080916400909165006B
:1000C000880F991F822B909365008093640010C065
:1000D00088B381110DC080916100882349F010928E
:1000E000610080916600882311F0C19A01C0C19817
:1000F000A0DF82E08A95F1F700C0CECFF894FFCF61
:00000001FF
